{
  "_format": "hh-sol-artifact-1",
  "contractName": "EIP1271Wallet",
  "sourceName": "src/MakerWallet.sol",
  "abi": [
    {
      "inputs": [
        {
          "internalType": "address",
          "name": "signer",
          "type": "address"
        }
      ],
      "name": "addSigner",
      "outputs": [
        {
          "internalType": "bool",
          "name": "",
          "type": "bool"
        }
      ],
      "stateMutability": "nonpayable",
      "type": "function"
    },
    {
      "inputs": [
        {
          "internalType": "address",
          "name": "token",
          "type": "address"
        },
        {
          "internalType": "address",
          "name": "spender",
          "type": "address"
        }
      ],
      "name": "approve",
      "outputs": [],
      "stateMutability": "nonpayable",
      "type": "function"
    },
    {
      "inputs": [
        {
          "internalType": "bytes32",
          "name": "_hash",
          "type": "bytes32"
        },
        {
          "internalType": "bytes",
          "name": "_signature",
          "type": "bytes"
        }
      ],
      "name": "isValidSignature",
      "outputs": [
        {
          "internalType": "bytes4",
          "name": "",
          "type": "bytes4"
        }
      ],
      "stateMutability": "view",
      "type": "function"
    }
  ],
  "bytecode": "0x6080806040523460155761069c908161001b8239f35b600080fdfe6080604052600436101561001257600080fd5b60003560e01c80631626ba7e146100475780637e5465ba146100425763eb12d61e1461003d57600080fd5b610243565b610149565b346100fe5760407ffffffffffffffffffffffffffffffffffffffffffffffffffffffffffffffffc3601126100fe5760243567ffffffffffffffff81116100fe57366023820112156100fe5780600401359067ffffffffffffffff82116100fe5736602483830101116100fe576100fa9160246100c792016004356103ab565b6040517fffffffff0000000000000000000000000000000000000000000000000000000090911681529081906020820190565b0390f35b600080fd5b6004359073ffffffffffffffffffffffffffffffffffffffff821682036100fe57565b6024359073ffffffffffffffffffffffffffffffffffffffff821682036100fe57565b346100fe5760407ffffffffffffffffffffffffffffffffffffffffffffffffffffffffffffffffc3601126100fe57610180610103565b602073ffffffffffffffffffffffffffffffffffffffff60446101a1610126565b60008360405196879586947f095ea7b30000000000000000000000000000000000000000000000000000000086521660048501527fffffffffffffffffffffffffffffffffffffffffffffffffffffffffffffffff6024850152165af1801561023e5761020a57005b6020813d602011610236575b8161022360209383610300565b810103126100fe5751801515036100fe57005b3d9150610216565b61058e565b346100fe5760207ffffffffffffffffffffffffffffffffffffffffffffffffffffffffffffffffc3601126100fe5773ffffffffffffffffffffffffffffffffffffffff61028f610103565b166000526000602052604060002060017fffffffffffffffffffffffffffffffffffffffffffffffffffffffffffffff00825416179055602060405160018152f35b7f4e487b7100000000000000000000000000000000000000000000000000000000600052604160045260246000fd5b90601f7fffffffffffffffffffffffffffffffffffffffffffffffffffffffffffffffe0910116810190811067ffffffffffffffff82111761034157604052565b6102d1565b1561034d57565b60646040517f08c379a000000000000000000000000000000000000000000000000000000000815260206004820152601960248201527f496e76616c69642045495031323731205369676e6174757265000000000000006044820152fd5b9167ffffffffffffffff811161034157604051906103f160207fffffffffffffffffffffffffffffffffffffffffffffffffffffffffffffffe0601f8401160183610300565b808252602082019236828201116100fe5781600092602092863783010152604181510361050a57602092600092519160ff604160408301519201511692601b84106104f3575b9061046291604051948594859094939260ff6060936080840197845216602083015260408201520152565b838052039060015afa1561023e576104cf6104ca6104c360005161049d73ffffffffffffffffffffffffffffffffffffffff821615156105db565b73ffffffffffffffffffffffffffffffffffffffff166000526000602052604060002090565b5460ff1690565b610346565b7f1626ba7e0000000000000000000000000000000000000000000000000000000090565b92906105016104629261059a565b93909150610437565b60846040517f08c379a000000000000000000000000000000000000000000000000000000000815260206004820152603a60248201527f5369676e617475726556616c696461746f72237265636f7665725369676e657260448201527f3a20696e76616c6964207369676e6174757265206c656e6774680000000000006064820152fd5b6040513d6000823e3d90fd5b60ff601b9116019060ff82116105ac57565b7f4e487b7100000000000000000000000000000000000000000000000000000000600052601160045260246000fd5b156105e257565b60846040517f08c379a000000000000000000000000000000000000000000000000000000000815260206004820152603060248201527f5369676e617475726556616c696461746f72237265636f7665725369676e657260448201527f3a20494e56414c49445f5349474e4552000000000000000000000000000000006064820152fdfea2646970667358221220497d0bf8da938bc4fdec8aeb38ff832faf2ef1d039148f6dfe49243a85969d6664736f6c634300081b0033",
  "linkReferences": {},
  "deployedLinkReferences": {}
}