{
  "_format": "hh-sol-artifact-1",
  "contractName": "BebopSettlement",
  "sourceName": "src/contracts/BebopSettlement.sol",
  "abi": [
    {
      "inputs": [
        {
          "internalType": "address",
          "name": "_wrapped_native_token_address",
          "type": "address"
        },
        {
          "internalType": "address",
          "name": "_permit",
          "type": "address"
        },
        {
          "internalType": "address",
          "name": "_dai_address",
          "type": "address"
        }
      ],
      "stateMutability": "nonpayable",
      "type": "constructor"
    },
    {
      "anonymous": false,
      "inputs": [
        {
          "indexed": false,
          "internalType": "bytes32",
          "name": "order_hash",
          "type": "bytes32"
        }
      ],
      "name": "AggregateOrderExecuted",
      "type": "event"
    },
    {
      "anonymous": false,
      "inputs": [
        {
          "indexed": false,
          "internalType": "address",
          "name": "maker",
          "type": "address"
        },
        {
          "indexed": false,
          "internalType": "address",
          "name": "signer",
          "type": "address"
        },
        {
          "indexed": false,
          "internalType": "bool",
          "name": "allowed",
          "type": "bool"
        }
      ],
      "name": "OrderSignerRegistered",
      "type": "event"
    },
    {
      "inputs": [],
      "name": "AGGREGATED_ORDER_TYPE_HASH",
      "outputs": [
        {
          "internalType": "bytes32",
          "name": "",
          "type": "bytes32"
        }
      ],
      "stateMutability": "view",
      "type": "function"
    },
    {
      "inputs": [],
      "name": "DAI_TOKEN",
      "outputs": [
        {
          "internalType": "address",
          "name": "",
          "type": "address"
        }
      ],
      "stateMutability": "view",
      "type": "function"
    },
    {
      "inputs": [],
      "name": "EIP712_DOMAIN_TYPEHASH",
      "outputs": [
        {
          "internalType": "bytes32",
          "name": "",
          "type": "bytes32"
        }
      ],
      "stateMutability": "view",
      "type": "function"
    },
    {
      "inputs": [],
      "name": "PARTIAL_AGGREGATED_ORDER_TYPE_HASH",
      "outputs": [
        {
          "internalType": "bytes32",
          "name": "",
          "type": "bytes32"
        }
      ],
      "stateMutability": "view",
      "type": "function"
    },
    {
      "inputs": [],
      "name": "PERMIT2",
      "outputs": [
        {
          "internalType": "contract IPermit2",
          "name": "",
          "type": "address"
        }
      ],
      "stateMutability": "view",
      "type": "function"
    },
    {
      "inputs": [
        {
          "components": [
            {
              "internalType": "uint256",
              "name": "expiry",
              "type": "uint256"
            },
            {
              "internalType": "address",
              "name": "taker_address",
              "type": "address"
            },
            {
              "internalType": "address[]",
              "name": "maker_addresses",
              "type": "address[]"
            },
            {
              "internalType": "uint256[]",
              "name": "maker_nonces",
              "type": "uint256[]"
            },
            {
              "internalType": "address[][]",
              "name": "taker_tokens",
              "type": "address[][]"
            },
            {
              "internalType": "address[][]",
              "name": "maker_tokens",
              "type": "address[][]"
            },
            {
              "internalType": "uint256[][]",
              "name": "taker_amounts",
              "type": "uint256[][]"
            },
            {
              "internalType": "uint256[][]",
              "name": "maker_amounts",
              "type": "uint256[][]"
            },
            {
              "internalType": "address[]",
              "name": "receivers",
              "type": "address[]"
            },
            {
              "internalType": "bool[]",
              "name": "using_contract",
              "type": "bool[]"
            }
          ],
          "internalType": "struct AggregateOrder",
          "name": "order",
          "type": "tuple"
        },
        {
          "components": [
            {
              "internalType": "enum SignatureType",
              "name": "signatureType",
              "type": "uint8"
            },
            {
              "internalType": "bytes",
              "name": "signatureBytes",
              "type": "bytes"
            }
          ],
          "internalType": "struct Signature",
          "name": "takerSig",
          "type": "tuple"
        },
        {
          "components": [
            {
              "components": [
                {
                  "internalType": "enum SignatureType",
                  "name": "signatureType",
                  "type": "uint8"
                },
                {
                  "internalType": "bytes",
                  "name": "signatureBytes",
                  "type": "bytes"
                }
              ],
              "internalType": "struct Signature",
              "name": "signature",
              "type": "tuple"
            },
            {
              "internalType": "bytes",
              "name": "signatureBytesPermit2",
              "type": "bytes"
            }
          ],
          "internalType": "struct MakerSignatures[]",
          "name": "makerSigs",
          "type": "tuple[]"
        }
      ],
      "name": "SettleAggregateOrder",
      "outputs": [
        {
          "internalType": "bool",
          "name": "",
          "type": "bool"
        }
      ],
      "stateMutability": "payable",
      "type": "function"
    },
    {
      "inputs": [
        {
          "components": [
            {
              "internalType": "uint256",
              "name": "expiry",
              "type": "uint256"
            },
            {
              "internalType": "address",
              "name": "taker_address",
              "type": "address"
            },
            {
              "internalType": "address[]",
              "name": "maker_addresses",
              "type": "address[]"
            },
            {
              "internalType": "uint256[]",
              "name": "maker_nonces",
              "type": "uint256[]"
            },
            {
              "internalType": "address[][]",
              "name": "taker_tokens",
              "type": "address[][]"
            },
            {
              "internalType": "address[][]",
              "name": "maker_tokens",
              "type": "address[][]"
            },
            {
              "internalType": "uint256[][]",
              "name": "taker_amounts",
              "type": "uint256[][]"
            },
            {
              "internalType": "uint256[][]",
              "name": "maker_amounts",
              "type": "uint256[][]"
            },
            {
              "internalType": "address[]",
              "name": "receivers",
              "type": "address[]"
            },
            {
              "internalType": "bool[]",
              "name": "using_contract",
              "type": "bool[]"
            }
          ],
          "internalType": "struct AggregateOrder",
          "name": "order",
          "type": "tuple"
        },
        {
          "components": [
            {
              "internalType": "enum SignatureType",
              "name": "signatureType",
              "type": "uint8"
            },
            {
              "internalType": "bytes",
              "name": "signatureBytes",
              "type": "bytes"
            }
          ],
          "internalType": "struct Signature",
          "name": "takerSig",
          "type": "tuple"
        },
        {
          "components": [
            {
              "components": [
                {
                  "internalType": "enum SignatureType",
                  "name": "signatureType",
                  "type": "uint8"
                },
                {
                  "internalType": "bytes",
                  "name": "signatureBytes",
                  "type": "bytes"
                }
              ],
              "internalType": "struct Signature",
              "name": "signature",
              "type": "tuple"
            },
            {
              "internalType": "bytes",
              "name": "signatureBytesPermit2",
              "type": "bytes"
            }
          ],
          "internalType": "struct MakerSignatures[]",
          "name": "makerSigs",
          "type": "tuple[]"
        },
        {
          "components": [
            {
              "internalType": "bytes",
              "name": "signatureBytesPermit2",
              "type": "bytes"
            },
            {
              "components": [
                {
                  "internalType": "bytes",
                  "name": "signatureBytes",
                  "type": "bytes"
                },
                {
                  "internalType": "address",
                  "name": "token",
                  "type": "address"
                },
                {
                  "internalType": "uint256",
                  "name": "amount",
                  "type": "uint256"
                }
              ],
              "internalType": "struct TokenPermit[]",
              "name": "permits",
              "type": "tuple[]"
            },
            {
              "internalType": "uint256",
              "name": "nonce",
              "type": "uint256"
            },
            {
              "internalType": "uint256",
              "name": "deadline",
              "type": "uint256"
            }
          ],
          "internalType": "struct TakerPermitsInfo",
          "name": "takerPermitsInfo",
          "type": "tuple"
        }
      ],
      "name": "SettleAggregateOrderWithTakerPermits",
      "outputs": [
        {
          "internalType": "bool",
          "name": "",
          "type": "bool"
        }
      ],
      "stateMutability": "payable",
      "type": "function"
    },
    {
      "inputs": [],
      "name": "WRAPPED_NATIVE_TOKEN",
      "outputs": [
        {
          "internalType": "address",
          "name": "",
          "type": "address"
        }
      ],
      "stateMutability": "view",
      "type": "function"
    },
    {
      "inputs": [
        {
          "components": [
            {
              "internalType": "uint256",
              "name": "expiry",
              "type": "uint256"
            },
            {
              "internalType": "address",
              "name": "taker_address",
              "type": "address"
            },
            {
              "internalType": "address[]",
              "name": "maker_addresses",
              "type": "address[]"
            },
            {
              "internalType": "uint256[]",
              "name": "maker_nonces",
              "type": "uint256[]"
            },
            {
              "internalType": "address[][]",
              "name": "taker_tokens",
              "type": "address[][]"
            },
            {
              "internalType": "address[][]",
              "name": "maker_tokens",
              "type": "address[][]"
            },
            {
              "internalType": "uint256[][]",
              "name": "taker_amounts",
              "type": "uint256[][]"
            },
            {
              "internalType": "uint256[][]",
              "name": "maker_amounts",
              "type": "uint256[][]"
            },
            {
              "internalType": "address[]",
              "name": "receivers",
              "type": "address[]"
            },
            {
              "internalType": "bool[]",
              "name": "using_contract",
              "type": "bool[]"
            }
          ],
          "internalType": "struct AggregateOrder",
          "name": "order",
          "type": "tuple"
        }
      ],
      "name": "hashAggregateOrder",
      "outputs": [
        {
          "internalType": "bytes32",
          "name": "",
          "type": "bytes32"
        }
      ],
      "stateMutability": "view",
      "type": "function"
    },
    {
      "inputs": [
        {
          "components": [
            {
              "internalType": "uint256",
              "name": "expiry",
              "type": "uint256"
            },
            {
              "internalType": "address",
              "name": "taker_address",
              "type": "address"
            },
            {
              "internalType": "address",
              "name": "maker_address",
              "type": "address"
            },
            {
              "internalType": "uint256",
              "name": "maker_nonce",
              "type": "uint256"
            },
            {
              "internalType": "address[]",
              "name": "taker_tokens",
              "type": "address[]"
            },
            {
              "internalType": "address[]",
              "name": "maker_tokens",
              "type": "address[]"
            },
            {
              "internalType": "uint256[]",
              "name": "taker_amounts",
              "type": "uint256[]"
            },
            {
              "internalType": "uint256[]",
              "name": "maker_amounts",
              "type": "uint256[]"
            },
            {
              "internalType": "address",
              "name": "receiver",
              "type": "address"
            }
          ],
          "internalType": "struct PartialOrder",
          "name": "order",
          "type": "tuple"
        }
      ],
      "name": "hashPartialOrder",
      "outputs": [
        {
          "internalType": "bytes32",
          "name": "",
          "type": "bytes32"
        }
      ],
      "stateMutability": "view",
      "type": "function"
    },
    {
      "inputs": [
        {
          "internalType": "address",
          "name": "signer",
          "type": "address"
        },
        {
          "internalType": "bool",
          "name": "allowed",
          "type": "bool"
        }
      ],
      "name": "registerAllowedOrderSigner",
      "outputs": [],
      "stateMutability": "nonpayable",
      "type": "function"
    },
    {
      "inputs": [
        {
          "internalType": "address",
          "name": "validationAddress",
          "type": "address"
        },
        {
          "internalType": "bytes32",
          "name": "hash",
          "type": "bytes32"
        },
        {
          "components": [
            {
              "internalType": "enum SignatureType",
              "name": "signatureType",
              "type": "uint8"
            },
            {
              "internalType": "bytes",
              "name": "signatureBytes",
              "type": "bytes"
            }
          ],
          "internalType": "struct Signature",
          "name": "signature",
          "type": "tuple"
        },
        {
          "internalType": "bool",
          "name": "isMaker",
          "type": "bool"
        }
      ],
      "name": "validateSignature",
      "outputs": [],
      "stateMutability": "view",
      "type": "function"
    },
    {
      "stateMutability": "payable",
      "type": "receive"
    }
  ],
  "bytecode": "0x6101003462000216576001600160401b0390601f62003f1a38819003918201601f1916830191908483118484101762000200578160609285926040958652833981010312620002165762000053826200021b565b6200006e8262000066602086016200021b565b94016200021b565b9180519060208201907f454950373132446f6d61696e28737472696e67206e616d652c737472696e672082527f76657273696f6e2c75696e7432353620636861696e49642c61646472657373208184015271766572696679696e67436f6e74726163742960701b606084015260528352608083019183831088841117620002005761014090838352845190209360a081019485527fd6144400a4098bee31df789c6c534128424a333149eec40af03ae3b3223cd96f60c08201527fc89efdaa54c0f20c7adf612882df0950f5a951637e0307cdcb4c672f298b8bc660e0820152466101008201523061012082015260a08452019682881090881117620002005786905251902060805260a05260c0526001600160a01b031660e052613ce9908162000231823960805181611b7c015260a0518181816108b90152818161099c01528181610c0401528181611134015281816131fe015281816134390152818161377e0152613824015260c0518181816117540152613a77015260e0518181816111bd0152818161306f01526138a30152f35b634e487b7160e01b600052604160045260246000fd5b600080fd5b51906001600160a01b0382168203620002165756fe6080604052600436101561001b575b361561001957600080fd5b005b60003560e01c80630fef0fb81461010b57806311dc7461146101025780631b3f8c5e146100f957806348432cf0146100f05780636afdd850146100e7578063ba19d835146100de578063bf014109146100d5578063c7977be7146100cc578063cd738d68146100c3578063e606df87146100ba578063ea7faa61146100b15763f453f4e30361000e576100ac611820565b61000e565b506100ac611783565b506100ac61173d565b506100ac611721565b506100ac61155b565b506100ac611349565b506100ac61132d565b506100ac6111a6565b506100ac611163565b506100ac61111d565b506100ac610d8c565b506100ac61078b565b50634e487b7160e01b600052604160045260246000fd5b604081019081106001600160401b0382111761014657604052565b61014e610114565b604052565b6001600160401b03811161014657604052565b608081019081106001600160401b0382111761014657604052565b606081019081106001600160401b0382111761014657604052565b61012081019081106001600160401b0382111761014657604052565b90601f801991011681019081106001600160401b0382111761014657604052565b6040519061014082018281106001600160401b0382111761014657604052565b6040519061020682610181565b565b6040519061012082018281106001600160401b0382111761014657604052565b604051906102068261019c565b604051906102068261012b565b600435906001600160a01b038216820361025857565b600080fd5b35906001600160a01b038216820361025857565b6020906001600160401b03811161028a575b60051b0190565b610292610114565b610283565b81601f82011215610258578035916102ae83610271565b926102bc60405194856101b8565b808452602092838086019260051b820101928311610258578301905b8282106102e6575050505090565b8380916102f28461025d565b8152019101906102d8565b81601f820112156102585780359161031483610271565b9261032260405194856101b8565b808452602092838086019260051b820101928311610258578301905b82821061034c575050505090565b8135815290830190830161033e565b9080601f830112156102585781359061037382610271565b9261038160405194856101b8565b828452602092838086019160051b8301019280841161025857848301915b8483106103af5750505050505090565b82356001600160401b0381116102585786916103d084848094890101610297565b81520192019161039f565b9080601f83011215610258578135906103f382610271565b9261040160405194856101b8565b828452602092838086019160051b8301019280841161025857848301915b84831061042f5750505050505090565b82356001600160401b038111610258578691610450848480948901016102fd565b81520192019161041f565b8015150361025857565b81601f820112156102585780359161047c83610271565b9261048a60405194856101b8565b808452602092838086019260051b820101928311610258578301905b8282106104b4575050505090565b83809183356104c28161045b565b8152019101906104a6565b919061014083820312610258576104e26101d9565b92803584526104f36020820161025d565b60208501526001600160401b039160408201358381116102585781610519918401610297565b6040860152606082013583811161025857816105369184016102fd565b60608601526080820135838111610258578161055391840161035b565b608086015260a0820135838111610258578161057091840161035b565b60a086015260c0820135838111610258578161058d9184016103db565b60c086015260e082013583811161025857816105aa9184016103db565b60e08601526101008083013584811161025857826105c9918501610297565b908601526101209283830135908111610258576105e69201610465565b90830152565b6020906001600160401b038111610609575b601f01601f19160190565b610611610114565b6105fe565b81601f820112156102585780359061062d826105ec565b9261063b60405194856101b8565b8284526020838301011161025857816000926020809301838601378301015290565b9190916040818403126102585760408051916001600160401b03918301828111848210176106b6575b6040528294813560038110156102585784526020820135928311610258576020926106b19201610616565b910152565b6106be610114565b610686565b81601f82011215610258578035906106da82610271565b926040926106ea845195866101b8565b808552602093848087019260051b8501019383851161025857858101925b858410610719575050505050505090565b6001600160401b0384358181116102585783019184601f1984890301126102585784516107458161012b565b8984013583811161025857888b61075e9287010161065d565b8152858401359283116102585761077c888b80969581960101610616565b83820152815201930192610708565b506060366003190112610258576001600160401b03600435818111610258576107b89036906004016104cd565b602435828111610258576107d090369060040161065d565b91604435908111610258576107ec61080e9136906004016106c3565b8093600160005461080060ff821615612489565b60ff19161760005583612931565b9180519061081a6101f9565b92600084526000602085015260006040850152610836836124c6565b916000905b848210610aa157505050604083015180610989575b505050602081015161089b575b604051828152600080516020613c948339815191529080602081015b0390a161088b60ff1960005416600055565b60405160018152602090f35b0390f35b80516001600160a01b03906108b790829081165b1615156125ef565b7f000000000000000000000000000000000000000000000000000000000000000016916020820151833b15610258576000808080610879968180610929600080516020613c948339815191529b61095c99604051948580948193632e1a7d4d60e01b8352600483019190602083019252565b03925af1801561097c575b610963575b5080516020906001600160a01b0316910151905af161095661264b565b5061267b565b915061085d565b8061097061097692610153565b80611112565b38610939565b610984611e95565b610934565b61099590341015612593565b60408301517f00000000000000000000000000000000000000000000000000000000000000006001600160a01b0316803b1561025857600090600460405180948193630d0e30db60e41b83525af18015610a94575b610a81575b5060005b8281101561085057806040610a0b610a179385611bf3565b510151610a1c57611bd7565b6109f3565b610a7c610a49610a3d610a2f8487611bf3565b51516001600160a01b031690565b6001600160a01b031690565b610a676020610a588588611bf3565b5101516001600160a01b031690565b6040610a738588611bf3565b510151916126c7565b611bd7565b80610970610a8e92610153565b386109ef565b610a9c611e95565b6109ea565b91959093610b22610ac9610abc8760408b9a989a0151611bf3565b516001600160a01b031690565b610adb610abc886101008c0151611bf3565b610ae98860a08c0151611bf3565b518a610b088a6060610aff8260e0860151611bf3565b51930151611bf3565b51918c51936020610b198d8c611bf3565b5101519561302f565b610b3081602087015161252c565b6020860152610d35575b60005b610b4b8660808a0151611bf3565b5151811015610d1d5773eeeeeeeeeeeeeeeeeeeeeeeeeeeeeeeeeeeeeeee610b87610a3d610abc84610b818b60808f0151611bf3565b51611bf3565b03610c5e5760c088018187825190610b9e91611bf3565b5190610ba991611bf3565b51604087015190610bb99161252c565b604087015281878060408c015190610bd091611bf3565b516001600160a01b0316925190610be691611bf3565b5190610bf191611bf3565b51610bfa6101f9565b6001600160a01b037f0000000000000000000000000000000000000000000000000000000000000000168152916001600160a01b031660208301526040820152610c448789611bf3565b52610c4f8688611bf3565b50610c5990611bd7565b610b3d565b80610c5991878a610c7d610c7783610120840151611bf3565b51151590565b15610cc857610abc610a7c93610b81610c9d946080610a3d950151611bf3565b8a610cc184610b818c60c0610cb9610abc836040890151611bf3565b950151611bf3565b51916126c7565b610abc610a7c93610b81610ce3946080610a3d950151611bf3565b60208b01518b906001600160a01b0316610d1685610b818d60c0610d0e610abc8360408a0151611bf3565b960151611bf3565b5192612705565b5093610d2f9096929196959395611bd7565b9061083b565b83516001600160a01b031680610d6d5750610d68610d5b610abc876101008b0151611bf3565b6001600160a01b03168552565b610b3a565b610d6890610d86610a3d610abc896101008d0151611bf3565b14612539565b503461025857608036600319011261025857610da6610242565b602435906044356001600160401b03811161025857610dc990369060040161065d565b9160643592610dd78461045b565b8051610de281611e75565b610deb81611e75565b610f1f57610e29602092610e038460009401516123b8565b6040805194855260ff909116602085015283019190915260608201529081906080820190565b838052039060015afa15610f12575b6000516001600160a01b0380821690610e52821515611ea2565b831614159283610eaf575b505050610e6657005b60405162461bcd60e51b815260206004820152601860248201527f496e76616c696420454950373132207369676e617475726500000000000000006044820152606490fd5b0390fd5b159250908215610ec4575b5050388080610e5d565b6001600160a01b03166000908152600260205260409020610f0b9250610f0791610f00915b9060018060a01b0316600052602052604060002090565b5460ff1690565b1590565b3880610eba565b610f1a611e95565b610e38565b909260018251610f2e81611e75565b610f3781611e75565b03610fd257506020610019939281610f69930151906040518080958194630b135d3f60e11b9889845260048401611f5c565b03916001600160a01b03165afa908115610fc5575b600091610f97575b506001600160e01b03191614611f76565b610fb8915060203d8111610fbe575b610fb081836101b8565b810190611f17565b38610f86565b503d610fa6565b610fcd611e95565b610f7e565b9260028251610fe081611e75565b610fe981611e75565b036110d45760209061102f60009384927f19457468657265756d205369676e6564204d6573736167653a0a3332000000008452601c52610e0384603c85209201516123b8565b838052039060015afa156110c7575b516001600160a01b0380821690611056821515611ea2565b831614159283611082575b505050156100195760405162461bcd60e51b815280610eab60048201611edf565b159250908215611097575b5050388080611061565b6001600160a01b031660009081526002602052604090206110c09250610f0791610f0091610ee9565b388061108d565b6110cf611e95565b61103e565b60405162461bcd60e51b8152602060048201526016602482015275496e76616c6964205369676e6174757265205479706560501b6044820152606490fd5b600091031261025857565b5034610258576000366003190112610258576040517f00000000000000000000000000000000000000000000000000000000000000006001600160a01b03168152602090f35b5034610258576020366003190112610258576004356001600160401b0381116102585761119e61119960209236906004016104cd565b6119d0565b604051908152f35b5034610258576000366003190112610258576040517f00000000000000000000000000000000000000000000000000000000000000006001600160a01b03168152602090f35b60405160208101907f4167677265676174654f726465722875696e74323536206578706972792c616482527f64726573732074616b65725f616464726573732c616464726573735b5d206d6160408201527f6b65725f6164647265737365732c75696e743235365b5d206d616b65725f6e6f60608201527f6e6365732c616464726573735b5d5b5d2074616b65725f746f6b656e732c616460808201527f64726573735b5d5b5d206d616b65725f746f6b656e732c75696e743235365b5d60a08201527f5b5d2074616b65725f616d6f756e74732c75696e743235365b5d5b5d206d616b60c08201527f65725f616d6f756e74732c616464726573735b5d207265636569766572732c6260e0820152746f6f6c5b5d207573696e675f636f6e74726163742960581b61010082015260f581526113278161019c565b51902090565b503461025857600036600319011261025857602061119e6111ec565b506003196080368201126102585760049081356001600160401b0381116102585761137790369084016104cd565b6024356001600160401b03811161025857611395903690850161065d565b906044356001600160401b038111610258576113b490369086016106c3565b926001600160401b0360643511610258576080906064353603011261025857604051936113e085610166565b6064358101356001600160401b03811161025857611405908236916064350101610616565b855260246064350135906001600160401b03821161025857366023836064350101121561025857816064350101359061143d82610271565b9161144b60405193846101b8565b80835260208301913660248360051b8360643501010111610258576024816064350101925b60248360051b8360643501010184106114c1576108976114af8a8a8a8a8a6020850152604460643501356040850152606480350135606085015261323a565b60405190151581529081906020820190565b8335906001600160401b038211610258576060606435840183013603602319011261025857604051916114f383610181565b6024818560643501010135916001600160401b0383116102585760249360646020949361152b8695883691848c873501010101610616565b835261153e6044828a853501010161025d565b858401528782350101013560408201528152019401939050611470565b5034610258576000366003190112610258576020604051818101907f454950373132446f6d61696e28737472696e67206e616d652c737472696e672082527f76657273696f6e2c75696e7432353620636861696e49642c6164647265737320604082015271766572696679696e67436f6e74726163742960701b6060820152605281526115e781610166565b519020604051908152f35b60405160208101907f5061727469616c4f726465722875696e74323536206578706972792c6164647282527f6573732074616b65725f616464726573732c61646472657373206d616b65725f60408201527f616464726573732c75696e74323536206d616b65725f6e6f6e63652c6164647260608201527f6573735b5d2074616b65725f746f6b656e732c616464726573735b5d206d616b60808201527f65725f746f6b656e732c75696e743235365b5d2074616b65725f616d6f756e7460a08201527f732c75696e743235365b5d206d616b65725f616d6f756e74732c61646472657360c08201526a732072656365697665722960a81b60e082015260cb815261010081018181106001600160401b03821117611714575b60405251902090565b61171c610114565b61170b565b503461025857600036600319011261025857602061119e6115f2565b5034610258576000366003190112610258576040517f00000000000000000000000000000000000000000000000000000000000000006001600160a01b03168152602090f35b5034610258576040366003190112610258577f6ea9dbe8b2cc119348716a9220a0742ad62b7884ecb0ff4b32cd508121fd937960606117c0610242565b6024356117cc8161045b565b3360009081526002602090815260408083206001600160a01b03861684529091529020805460ff92151592831660ff1991909116179055604080513381526001600160a01b039093166020840152820152a1005b5034610258576003196020368201126102585760048035906001600160401b0392838311610258576101209083360301126102585761185d610208565b908281013582526118706024840161025d565b60208301526118816044840161025d565b6040830152606483013560608301526084830135848111610258576118ab90823691860101610297565b608083015260a4830135848111610258576118cb90823691860101610297565b60a083015260c4830135848111610258576118eb908236918601016102fd565b60c083015260e48301359384116102585761010461192e93611918610897966119239436918401016102fd565b60e08501520161025d565b610100820152611d33565b6040519081529081906020820190565b805160208092019160005b828110611957575050505090565b83516001600160a01b031685529381019392810192600101611949565b805160208092019160005b82811061198d575050505090565b83518552938101939281019260010161197f565b805160208092019160005b8281106119ba575050505090565b83511515855293810193928101926001016119ac565b6119d86111ec565b8151602080840151929390929091906001600160a01b031683604095868086015195815196878581019182611a0c9161193e565b0397601f19988981018252611a2190826101b8565b51902060608201518351808781019283611a3a91611974565b038a81018252611a4a90826101b8565b5190206080830151611a5b90611ce3565b86815191012060a0840151611a6f90611ce3565b8781519101209060c0850151611a8490611c5e565b8881519101209260e0860151611a9990611c5e565b898151910120946101008701518d895190818d81019384611ab99161193e565b039081018252611ac990826101b8565b5190209661012001518d895190818d81019384611ae5916119a1565b039081018252611af590826101b8565b51902097519a8b9a8b019c611b599a8e979491926101409996939c9b9a9794919c6101608a019d8a5260208a015260018060a01b031660408901526060880152608087015260a086015260c085015260e08401526101008301526101208201520152565b038381018252611b6990826101b8565b519020925161190160f01b9281019283527f000000000000000000000000000000000000000000000000000000000000000060028401526022830193909352909190816042840103908101825261132790826101b8565b50634e487b7160e01b600052601160045260246000fd5b6001906000198114611be7570190565b611bef611bc0565b0190565b8051821015611c075760209160051b010190565b634e487b7160e01b600052603260045260246000fd5b60005b838110611c305750506000910152565b8181015183820152602001611c20565b6020929190611c56849282815194859201611c1d565b019081520190565b60609080516000905b808210611c745750505090565b90919392611cd990611cd3611c898588611bf3565b51604090611cc782519260209284611ca48582018093611974565b0394611cb8601f19968781018352826101b8565b51902090519586938401611c40565b039081018352826101b8565b92611bd7565b9093919293611c67565b60609080516000905b808210611cf95750505090565b90919392611d2990611cd3611d0e8588611bf3565b51604090611cc782519260209284611ca4858201809361193e565b9093919293611cec565b611d3b6115f2565b8151602080840151929390929091906001600160a01b0316604083810151909591906001600160a01b0316916060850151608086015195885196878981019182611d849161193e565b0397601f19988981018252611d9990826101b8565b51902060a08201518a51808b81019283611db29161193e565b038a81018252611dc290826101b8565b51902060c08301518b51808c81019283611ddb91611974565b038b81018252611deb90826101b8565b5190209160e08401518c51808d81019283611e0591611974565b038c81018252611e1590826101b8565b519020610100948501518d518d8101988952602089019b909b526001600160a01b0398891660408901529888166060880152608087019590955260a086015260c085015260e0840152820152911661012082015290806101408301611b59565b60031115611e7f57565b634e487b7160e01b600052602160045260246000fd5b506040513d6000823e3d90fd5b15611ea957565b60405162461bcd60e51b815260206004820152600e60248201526d24b73b30b634b21039b4b3b732b960911b6044820152606490fd5b60609060208152601960208201527f496e76616c69642045544853494748207369676e61747572650000000000000060408201520190565b9081602091031261025857516001600160e01b0319811681036102585790565b90602091611f5081518092818552858086019101611c1d565b601f01601f1916010190565b604090611f73939281528160208201520190611f37565b90565b15611f7d57565b60405162461bcd60e51b815260206004820152601a60248201527f496e76616c6964204549502031323731205369676e61747572650000000000006044820152606490fd5b918051611fce81611e75565b611fd781611e75565b61203c57611fef602092610e038460009401516123b8565b838052039060015afa1561202f575b6000516001600160a01b0390811691612018831515611ea2565b16141580612027575b610e6657565b506001612021565b612037611e95565b611ffe565b6001815161204981611e75565b61205281611e75565b036120825760206102069381610f69930151906040518080958194630b135d3f60e11b9889845260048401611f5c565b906002825161209081611e75565b61209981611e75565b036110d4576020906120df60009384927f19457468657265756d205369676e6564204d6573736167653a0a3332000000008452601c52610e0384603c85209201516123b8565b838052039060015afa15612135575b516001600160a01b0390811691612106831515611ea2565b1614158061212d575b156102065760405162461bcd60e51b815280610eab60048201611edf565b50600161210f565b61213d611e95565b6120ee565b91805161214e81611e75565b61215781611e75565b6121e85761216f602092610e038460009401516123b8565b838052039060015afa156121db575b6000516001600160a01b0380821690612198821515611ea2565b8316141591826121ab575b5050610e6657565b6001600160a01b031660009081526002602052604090206121d49250610f0791610f0091610ee9565b38806121a3565b6121e3611e95565b61217e565b600181516121f581611e75565b6121fe81611e75565b0361222e5760206102069381610f69930151906040518080958194630b135d3f60e11b9889845260048401611f5c565b906002825161223c81611e75565b61224581611e75565b036110d45760209061228b60009384927f19457468657265756d205369676e6564204d6573736167653a0a3332000000008452601c52610e0384603c85209201516123b8565b838052039060015afa1561230d575b516001600160a01b03808216906122b2821515611ea2565b8316141591826122dd575b5050156102065760405162461bcd60e51b815280610eab60048201611edf565b6001600160a01b031660009081526002602052604090206123069250610f0791610f0091610ee9565b38806122bd565b612315611e95565b61229a565b60ff601b9116019060ff821161232c57565b610206611bc0565b1561233b57565b60405162461bcd60e51b8152602060048201526013602482015272496e76616c6964207369672076616c7565205360681b6044820152606490fd5b1561237d57565b60405162461bcd60e51b815260206004820152601360248201527224b73b30b634b21039b4b3903b30b63ab2902b60691b6044820152606490fd5b9060418251036124445760208201519060ff604160408501519401511691601b8310612434575b61240b7f7fffffffffffffffffffffffffffffff5d576e7357a4501ddfe92f46681b20a0851115612334565b61242460ff8416601b8114908115612429575b50612376565b929190565b601c9150143861241e565b9161243e9061231a565b916123df565b60405162461bcd60e51b815260206004820152601860248201527f496e76616c6964207369676e6174757265206c656e67746800000000000000006044820152606490fd5b1561249057565b60405162461bcd60e51b815260206004820152600e60248201526d4e6f2072652d656e7472616e637960901b6044820152606490fd5b906124d082610271565b6040906124df825191826101b8565b83815280936124f0601f1991610271565b0191600091825b848110612505575050505050565b602090835161251381610181565b85815282868183015286868301528285010152016124f7565b9190820180921161232c57565b1561254057565b60405162461bcd60e51b815260206004820152602560248201527f556e657870656374656420726563656976657220666f72206e617469766520746044820152646f6b656e7360d81b6064820152608490fd5b1561259a57565b60405162461bcd60e51b815260206004820152602760248201527f54616b657220646f65736e2774206861766520656e6f756768206e617469766560448201526620746f6b656e7360c81b6064820152608490fd5b156125f657565b60405162461bcd60e51b815260206004820152602760248201527f5a65726f206164647265737320726563656976657220666f72206e617469766560448201526620746f6b656e7360c81b6064820152608490fd5b3d15612676573d9061265c826105ec565b9161266a60405193846101b8565b82523d6000602084013e565b606090565b1561268257565b60405162461bcd60e51b815260206004820152601d60248201527f4661696c656420746f2073656e6420457468657220746f2074616b65720000006044820152606490fd5b60405163a9059cbb60e01b60208201526001600160a01b0390921660248301526044808301939093529181526102069161270082610166565b61276a565b6040516323b872dd60e01b60208201526001600160a01b0392831660248201529290911660448301526064808301939093529181526102069160a082018281106001600160401b0382111761275d575b60405261276a565b612765610114565b612755565b6040516127c8916001600160a01b03166127838261012b565b6000806020958685527f5361666545524332303a206c6f772d6c6576656c2063616c6c206661696c656487860152868151910182855af16127c261264b565b91612858565b8051828115918215612838575b50509050156127e15750565b6084906040519062461bcd60e51b82526004820152602a60248201527f5361666545524332303a204552433230206f7065726174696f6e20646964206e6044820152691bdd081cdd58d8d9595960b21b6064820152fd5b8380929350010312610258578101516128508161045b565b8082386127d5565b919290156128ba575081511561286c575090565b3b156128755790565b60405162461bcd60e51b815260206004820152601d60248201527f416464726573733a2063616c6c20746f206e6f6e2d636f6e74726163740000006044820152606490fd5b8251909150156128cd5750805190602001fd5b60405162461bcd60e51b815260206004820152908190610eab906024830190611f37565b156128f857565b60405162461bcd60e51b815260206004820152601160248201527014da59db985d1d5c9948195e1c1a5c9959607a1b6044820152606490fd5b909161293c826119d0565b9260018060a01b036020840151169084823303612b49575b505050612968608083015151825114612b5a565b61297960a083015151825114612ba6565b61298a60c083015151825114612bf2565b61299b60e083015151825114612c3e565b6129ac606083015151825114612c8a565b6129bd604083015151825114612cd6565b80519060005b8281106129d957505050611f73905142106128f1565b80610a7c6129f1610abc612b44946040890151611bf3565b612a1a612a028460a08a0151611bf3565b5151612a128560e08b0151611bf3565b515114612d22565b612a43612a2b8460808a0151611bf3565b5151612a3b8560c08b0151611bf3565b515114612d7f565b86516020880151612b2f91612b1c91612b17906001600160a01b03168b88612a6f816060840151611bf3565b51612a7e826080850151611bf3565b51612a8d8360a0860151611bf3565b5191612ade612ac2610abc612aa68760c08a0151611bf3565b5196610100612ab98260e08c0151611bf3565b51990151611bf3565b96612acb610228565b998a526001600160a01b031660208a0152565b6001600160a01b038b1660408901526060880152608087015260a086015260c085015260e08401526001600160a01b0316610100830152565b611d33565b612b268588611bf3565b51519083612142565b612b3d836060890151611bf3565b5190612e28565b6129c3565b612b5292611fc2565b388084612954565b15612b6157565b60405162461bcd60e51b815260206004820152601c60248201527f54616b657220746f6b656e73206c656e677468206d69736d61746368000000006044820152606490fd5b15612bad57565b60405162461bcd60e51b815260206004820152601c60248201527f4d616b657220746f6b656e73206c656e677468206d69736d61746368000000006044820152606490fd5b15612bf957565b60405162461bcd60e51b815260206004820152601d60248201527f54616b657220616d6f756e7473206c656e677468206d69736d617463680000006044820152606490fd5b15612c4557565b60405162461bcd60e51b815260206004820152601d60248201527f4d616b657220616d6f756e7473206c656e677468206d69736d617463680000006044820152606490fd5b15612c9157565b60405162461bcd60e51b815260206004820152601c60248201527f4d616b6572206e6f6e636573206c656e677468206d69736d61746368000000006044820152606490fd5b15612cdd57565b60405162461bcd60e51b815260206004820152601f60248201527f4d616b657220616464726573736573206c656e677468206d69736d61746368006044820152606490fd5b15612d2957565b60405162461bcd60e51b815260206004820152602860248201527f4d616b657220746f6b656e7320616e6420616d6f756e7473206c656e677468206044820152670dad2e6dac2e8c6d60c31b6064820152608490fd5b15612d8657565b60405162461bcd60e51b815260206004820152602860248201527f54616b657220746f6b656e7320616e6420616d6f756e7473206c656e677468206044820152670dad2e6dac2e8c6d60c31b6064820152608490fd5b15612de357565b60405162461bcd60e51b815260206004820152601b60248201527f496e76616c6964206d616b6572206f7264657220286e6f6e63652900000000006044820152606490fd5b908015612e8c5780600160ff66ffffffffffffff612e899460081c1692161b9260018060a01b031660005260016020526040600020928160005283602052604060002054612e7882821615612ddc565b179290600052602052604060002090565b55565b60405162461bcd60e51b81526020600482015260166024820152754e6f6e6365206d757374206265206e6f6e2d7a65726f60501b6044820152606490fd5b90612ed482610271565b604090612ee3825191826101b8565b8381528093612ef4601f1991610271565b0191600090815b848110612f09575050505050565b6020908251612f178161012b565b848152828581830152828701015201612efb565b90815180825260208080930193019160005b828110612f4b575050505090565b9091929382604082612f7260019489516020809160018060a01b0381511684520151910152565b01950193929101612f3d565b909493916080825260e082019580519060606080850152815180985261010084019760208093019060005b818110612ffe5750505096612ff1928260408a612fdf95611f739b9c015160a0890152015160c087015285830390860152612f2b565b6001600160a01b039094166040830152565b6060818403910152611f37565b909199846040826130246001948f516020809160018060a01b0381511684520151910152565b019b01929101612fa9565b92939190959460009682519061304482612eca565b9661304e83612eca565b948a5b848110613112575050505050855161306d575b50505050505090565b7f00000000000000000000000000000000000000000000000000000000000000006001600160a01b0316926130a06101f9565b95865260208601526040850152813b1561025857600080946130d86040519788968795869463edd9444b60e01b865260048601612f7e565b03925af18015613105575b6130f2575b8080808080613064565b806109706130ff92610153565b386130e8565b61310d611e95565b6130e3565b61311f610abc8284611bf3565b6131298285611bf3565b519085906001600160a01b039081811673eeeeeeeeeeeeeeeeeeeeeeeeeeeeeeeeeeeeeeee146131ef575b918c8f928f9487613176989795511560001461317b5750610a7c955016612705565b613051565b915092946131b6925061319e61318f610235565b6001600160a01b039095168552565b60209385858201526131b08383611bf3565b52611bf3565b506131d16131c2610235565b6001600160a01b039094168452565b8201526131de828a611bf3565b526131e98189611bf3565b50611bd7565b508c91509180849f8f95948e917f00000000000000000000000000000000000000000000000000000000000000009030946132299161252c565b9f509294509294509c9f9450613154565b929193908461326391600160005461325560ff821615612489565b60ff19161760005585612931565b906020830151805161395c575b50600093845b608082015180518710156132a9576132a3916132958861329d93611bf3565b51519061252c565b95611bd7565b94613276565b5093909194509491946132bb84612eca565b916132c585612eca565b936132d16000966124c6565b926000916132dd6101f9565b926000845260006020850152600060408501526000995b82518b10156136ee578a61330f610abc8260408a0151611bf3565b613364610100890191868a613328610abc878751611bf3565b6133368760a0840151611bf3565b516133458860e0850151611bf3565b51916020610b198a61335b816060890151611bf3565b51965197611bf3565b6133728160208a015161252c565b602089015261369e575b5050906000905b608087016133928d8251611bf3565b515183101561368557908c878373eeeeeeeeeeeeeeeeeeeeeeeeeeeeeeeeeeeeeeee6133cd610a3d610abc898f9b9a9988610b819151611bf3565b036134a857509161342384610b818460c061341b610abc8360408e889c826134a19f61340761348d9f91610b81613411938c880151611bf3565b518284015161252c565b9101520151611bf3565b9a0151611bf3565b5161346d61342f6101f9565b6001600160a01b037f0000000000000000000000000000000000000000000000000000000000000000168152975b6001600160a01b03166020890152565b604087015261347b81611bd7565b95613486828d611bf3565b528a611bf3565b50600019808b51018b528b51018b52611bd7565b9091613383565b91929590506134bf610c7784610120840151611bf3565b61362f57506134df876134da610abc86610b81878751611bf3565b6139cb565b5115613545578189613503610a3d610abc87610b816134a199986135329851611bf3565b91610d1685610b8161351e602086015160018060a01b031690565b9360c0610d0e610abc8360408a0151611bf3565b600019808b51018b528b51018b52611bd7565b9181819d93519061355591611bf3565b519061356091611bf3565b516001600160a01b03168c60c08a019283519061357c91611bf3565b519061358791611bf3565b51613590610235565b6001600160a01b03909216825260208201526135ac838c611bf3565b526135b7828b611bf3565b508b8d8060408b0151906135ca91611bf3565b516001600160a01b03169251906135e091611bf3565b51906135eb91611bf3565b516135f4610235565b6001600160a01b0390921682526020820152613610828c611bf3565b5261361b818b611bf3565b5061362590611bd7565b996134a190611bd7565b94829561346d61366986610b81613655610abc83610b816134a19c9b61348d9b51611bf3565b9a60c0610d0e610abc8360408a0151611bf3565b519161345d6136766101f9565b6001600160a01b03909a168a52565b509798999a6136949150611bd7565b99989796906132f4565b86516001600160a01b0316806136d45750610abc6136cd926136c09251611bf3565b6001600160a01b03168652565b8a3861337c565b90610a3d610abc6136e994610d869351611bf3565b6136cd565b9a99509694959391929790506137068451821461397f565b613897575b50505050604083015180613811575b5060005b8281106137f5575050506020810151613764575b50604051908152600080516020613c948339815191529080602081015b0390a160019061020660ff1960005416600055565b80516001600160a01b039061377c90829081166108af565b7f000000000000000000000000000000000000000000000000000000000000000016916020820151833b1561025857600080808061374f968180610929600080516020613c948339815191529b6137ee99604051948580948193632e1a7d4d60e01b8352600483019190602083019252565b9150613732565b80610a7c610a49610a3d610a2f61380c9587611bf3565b61371e565b61381d90341015612593565b60408301517f00000000000000000000000000000000000000000000000000000000000000006001600160a01b0316803b1561025857600090600460405180948193630d0e30db60e41b83525af1801561388a575b1561371a578061097061388492610153565b3861371a565b613892611e95565b613872565b604082015160608301517f00000000000000000000000000000000000000000000000000000000000000006001600160a01b0316926138f692602092906138dc6101f9565b97885283880152604087015201516001600160a01b031690565b915193813b1561025857600080946139246040519788968795869463edd9444b60e01b865260048601612f7e565b03925af1801561394f575b61393c575b80808061370b565b8061097061394992610153565b38613934565b613957611e95565b61392f565b6020850151606085015161397992916001600160a01b0316613a6a565b38613270565b1561398657565b60405162461bcd60e51b815260206004820152601b60248201527f556e6578706563746564206e756d626572206f6620746f6b656e7300000000006044820152606490fd5b9060005b60208083019081518051841015613a24576001600160a01b039182916139f6908690611bf3565b5101511690851614613a115750613a0c90611bd7565b6139cf565b909150613a1f925051611bf3565b515190565b505050505050604051602081018181106001600160401b03821117613a4e575b6040526000815290565b613a56610114565b613a44565b90816020910312610258575190565b92916001600160a01b03907f000000000000000000000000000000000000000000000000000000000000000082169060005b8151811015613c8a57613aaf8183611bf3565b5190613abb82516123b8565b91936020908181019089613ad5835160018060a01b031690565b16898103613c1657505051613af490610a3d906001600160a01b031681565b60408051623f675f60e91b81526001600160a01b038e166004808301919091529195908481602481875afa948515613c09575b600095613bda575b5050823b156102585794516323f2ebc360e21b81526001600160a01b038e169181019182523060208301526040820193909352606081018b90526001608082015260ff90941660a085015260c084019590955260e0830191909152613bb59390916000918391829084908290610100015b03925af18015613bcd575b613bba5750611bd7565b613a9c565b80610970613bc792610153565b386131e9565b613bd5611e95565b613bab565b613bfa929550803d10613c02575b613bf281836101b8565b810190613a5b565b923880613b2f565b503d613be8565b613c11611e95565b613b27565b91509150604095929580920151813b1561025857915163d505accf60e01b81526001600160a01b038d1660048201523060248201526044810192909252606482018a905260ff909316608482015260a481019190915260c4810193909352613bb59290600090829081838160e48101613ba0565b5050505050905056fec59522161f93d59c8c4520b0e7a3635fb7544133275be812a4ea970f4f14251ba26469706673582212203db12353252905f12034360cc2347dbe3d747c33ace0b334c19c88e7485e85da64736f6c63430008110033",
  "linkReferences": {},
  "deployedLinkReferences": {}
}