{
  "_format": "hh-sol-artifact-1",
  "contractName": "BebopSettlement",
  "sourceName": "src/contracts/BebopSettlement.sol",
  "abi": [
    {
      "inputs": [
        {
          "internalType": "address",
          "name": "_wrapped_native_token_address",
          "type": "address"
        },
        {
          "internalType": "address",
          "name": "_permit",
          "type": "address"
        },
        {
          "internalType": "address",
          "name": "_dai_address",
          "type": "address"
        }
      ],
      "stateMutability": "nonpayable",
      "type": "constructor"
    },
    {
      "inputs": [],
      "name": "UnsafeCast",
      "type": "error"
    },
    {
      "anonymous": false,
      "inputs": [
        {
          "indexed": false,
          "internalType": "bytes32",
          "name": "order_hash",
          "type": "bytes32"
        }
      ],
      "name": "AggregateOrderExecuted",
      "type": "event"
    },
    {
      "anonymous": false,
      "inputs": [
        {
          "indexed": false,
          "internalType": "address",
          "name": "maker",
          "type": "address"
        },
        {
          "indexed": false,
          "internalType": "address",
          "name": "signer",
          "type": "address"
        },
        {
          "indexed": false,
          "internalType": "bool",
          "name": "allowed",
          "type": "bool"
        }
      ],
      "name": "OrderSignerRegistered",
      "type": "event"
    },
    {
      "inputs": [],
      "name": "AGGREGATED_ORDER_TYPE_HASH",
      "outputs": [
        {
          "internalType": "bytes32",
          "name": "",
          "type": "bytes32"
        }
      ],
      "stateMutability": "view",
      "type": "function"
    },
    {
      "inputs": [],
      "name": "DAI_TOKEN",
      "outputs": [
        {
          "internalType": "address",
          "name": "",
          "type": "address"
        }
      ],
      "stateMutability": "view",
      "type": "function"
    },
    {
      "inputs": [],
      "name": "DOMAIN_SEPARATOR",
      "outputs": [
        {
          "internalType": "bytes32",
          "name": "",
          "type": "bytes32"
        }
      ],
      "stateMutability": "view",
      "type": "function"
    },
    {
      "inputs": [],
      "name": "EIP712_DOMAIN_TYPEHASH",
      "outputs": [
        {
          "internalType": "bytes32",
          "name": "",
          "type": "bytes32"
        }
      ],
      "stateMutability": "view",
      "type": "function"
    },
    {
      "inputs": [],
      "name": "PARTIAL_AGGREGATED_ORDER_TYPE_HASH",
      "outputs": [
        {
          "internalType": "bytes32",
          "name": "",
          "type": "bytes32"
        }
      ],
      "stateMutability": "view",
      "type": "function"
    },
    {
      "inputs": [],
      "name": "PERMIT2",
      "outputs": [
        {
          "internalType": "contract IPermit2",
          "name": "",
          "type": "address"
        }
      ],
      "stateMutability": "view",
      "type": "function"
    },
    {
      "inputs": [
        {
          "components": [
            {
              "internalType": "uint256",
              "name": "expiry",
              "type": "uint256"
            },
            {
              "internalType": "address",
              "name": "taker_address",
              "type": "address"
            },
            {
              "internalType": "address[]",
              "name": "maker_addresses",
              "type": "address[]"
            },
            {
              "internalType": "uint256[]",
              "name": "maker_nonces",
              "type": "uint256[]"
            },
            {
              "internalType": "address[][]",
              "name": "taker_tokens",
              "type": "address[][]"
            },
            {
              "internalType": "address[][]",
              "name": "maker_tokens",
              "type": "address[][]"
            },
            {
              "internalType": "uint256[][]",
              "name": "taker_amounts",
              "type": "uint256[][]"
            },
            {
              "internalType": "uint256[][]",
              "name": "maker_amounts",
              "type": "uint256[][]"
            },
            {
              "internalType": "address",
              "name": "receiver",
              "type": "address"
            },
            {
              "internalType": "bytes",
              "name": "commands",
              "type": "bytes"
            }
          ],
          "internalType": "struct Order.Aggregate",
          "name": "order",
          "type": "tuple"
        },
        {
          "components": [
            {
              "internalType": "enum Signature.Type",
              "name": "signatureType",
              "type": "uint8"
            },
            {
              "internalType": "bytes",
              "name": "signatureBytes",
              "type": "bytes"
            }
          ],
          "internalType": "struct Signature.TypedSignature",
          "name": "takerSig",
          "type": "tuple"
        },
        {
          "components": [
            {
              "components": [
                {
                  "internalType": "enum Signature.Type",
                  "name": "signatureType",
                  "type": "uint8"
                },
                {
                  "internalType": "bytes",
                  "name": "signatureBytes",
                  "type": "bytes"
                }
              ],
              "internalType": "struct Signature.TypedSignature",
              "name": "signature",
              "type": "tuple"
            },
            {
              "internalType": "bool",
              "name": "usingPermit2",
              "type": "bool"
            }
          ],
          "internalType": "struct Signature.MakerSignatures[]",
          "name": "makerSigs",
          "type": "tuple[]"
        }
      ],
      "name": "SettleAggregateOrder",
      "outputs": [
        {
          "internalType": "bool",
          "name": "",
          "type": "bool"
        }
      ],
      "stateMutability": "payable",
      "type": "function"
    },
    {
      "inputs": [
        {
          "components": [
            {
              "internalType": "uint256",
              "name": "expiry",
              "type": "uint256"
            },
            {
              "internalType": "address",
              "name": "taker_address",
              "type": "address"
            },
            {
              "internalType": "address[]",
              "name": "maker_addresses",
              "type": "address[]"
            },
            {
              "internalType": "uint256[]",
              "name": "maker_nonces",
              "type": "uint256[]"
            },
            {
              "internalType": "address[][]",
              "name": "taker_tokens",
              "type": "address[][]"
            },
            {
              "internalType": "address[][]",
              "name": "maker_tokens",
              "type": "address[][]"
            },
            {
              "internalType": "uint256[][]",
              "name": "taker_amounts",
              "type": "uint256[][]"
            },
            {
              "internalType": "uint256[][]",
              "name": "maker_amounts",
              "type": "uint256[][]"
            },
            {
              "internalType": "address",
              "name": "receiver",
              "type": "address"
            },
            {
              "internalType": "bytes",
              "name": "commands",
              "type": "bytes"
            }
          ],
          "internalType": "struct Order.Aggregate",
          "name": "order",
          "type": "tuple"
        },
        {
          "components": [
            {
              "internalType": "enum Signature.Type",
              "name": "signatureType",
              "type": "uint8"
            },
            {
              "internalType": "bytes",
              "name": "signatureBytes",
              "type": "bytes"
            }
          ],
          "internalType": "struct Signature.TypedSignature",
          "name": "takerSig",
          "type": "tuple"
        },
        {
          "components": [
            {
              "components": [
                {
                  "internalType": "enum Signature.Type",
                  "name": "signatureType",
                  "type": "uint8"
                },
                {
                  "internalType": "bytes",
                  "name": "signatureBytes",
                  "type": "bytes"
                }
              ],
              "internalType": "struct Signature.TypedSignature",
              "name": "signature",
              "type": "tuple"
            },
            {
              "internalType": "bool",
              "name": "usingPermit2",
              "type": "bool"
            }
          ],
          "internalType": "struct Signature.MakerSignatures[]",
          "name": "makerSigs",
          "type": "tuple[]"
        },
        {
          "components": [
            {
              "internalType": "bytes[]",
              "name": "permitSignatures",
              "type": "bytes[]"
            },
            {
              "internalType": "bytes",
              "name": "signatureBytesPermit2",
              "type": "bytes"
            },
            {
              "internalType": "uint48[]",
              "name": "noncesPermit2",
              "type": "uint48[]"
            },
            {
              "internalType": "uint48",
              "name": "deadline",
              "type": "uint48"
            }
          ],
          "internalType": "struct Signature.TakerPermitsInfo",
          "name": "takerPermitsInfo",
          "type": "tuple"
        }
      ],
      "name": "SettleAggregateOrderWithTakerPermits",
      "outputs": [
        {
          "internalType": "bool",
          "name": "",
          "type": "bool"
        }
      ],
      "stateMutability": "payable",
      "type": "function"
    },
    {
      "inputs": [],
      "name": "WRAPPED_NATIVE_TOKEN",
      "outputs": [
        {
          "internalType": "address",
          "name": "",
          "type": "address"
        }
      ],
      "stateMutability": "view",
      "type": "function"
    },
    {
      "inputs": [
        {
          "components": [
            {
              "internalType": "uint256",
              "name": "expiry",
              "type": "uint256"
            },
            {
              "internalType": "address",
              "name": "taker_address",
              "type": "address"
            },
            {
              "internalType": "address[]",
              "name": "maker_addresses",
              "type": "address[]"
            },
            {
              "internalType": "uint256[]",
              "name": "maker_nonces",
              "type": "uint256[]"
            },
            {
              "internalType": "address[][]",
              "name": "taker_tokens",
              "type": "address[][]"
            },
            {
              "internalType": "address[][]",
              "name": "maker_tokens",
              "type": "address[][]"
            },
            {
              "internalType": "uint256[][]",
              "name": "taker_amounts",
              "type": "uint256[][]"
            },
            {
              "internalType": "uint256[][]",
              "name": "maker_amounts",
              "type": "uint256[][]"
            },
            {
              "internalType": "address",
              "name": "receiver",
              "type": "address"
            },
            {
              "internalType": "bytes",
              "name": "commands",
              "type": "bytes"
            }
          ],
          "internalType": "struct Order.Aggregate",
          "name": "order",
          "type": "tuple"
        }
      ],
      "name": "hashAggregateOrder",
      "outputs": [
        {
          "internalType": "bytes32",
          "name": "",
          "type": "bytes32"
        }
      ],
      "stateMutability": "view",
      "type": "function"
    },
    {
      "inputs": [
        {
          "components": [
            {
              "internalType": "uint256",
              "name": "expiry",
              "type": "uint256"
            },
            {
              "internalType": "address",
              "name": "taker_address",
              "type": "address"
            },
            {
              "internalType": "address",
              "name": "maker_address",
              "type": "address"
            },
            {
              "internalType": "uint256",
              "name": "maker_nonce",
              "type": "uint256"
            },
            {
              "internalType": "address[]",
              "name": "taker_tokens",
              "type": "address[]"
            },
            {
              "internalType": "address[]",
              "name": "maker_tokens",
              "type": "address[]"
            },
            {
              "internalType": "uint256[]",
              "name": "taker_amounts",
              "type": "uint256[]"
            },
            {
              "internalType": "uint256[]",
              "name": "maker_amounts",
              "type": "uint256[]"
            },
            {
              "internalType": "address",
              "name": "receiver",
              "type": "address"
            },
            {
              "internalType": "bytes",
              "name": "commands",
              "type": "bytes"
            }
          ],
          "internalType": "struct Order.Partial",
          "name": "order",
          "type": "tuple"
        }
      ],
      "name": "hashPartialOrder",
      "outputs": [
        {
          "internalType": "bytes32",
          "name": "",
          "type": "bytes32"
        }
      ],
      "stateMutability": "view",
      "type": "function"
    },
    {
      "inputs": [
        {
          "internalType": "address",
          "name": "signer",
          "type": "address"
        },
        {
          "internalType": "bool",
          "name": "allowed",
          "type": "bool"
        }
      ],
      "name": "registerAllowedOrderSigner",
      "outputs": [],
      "stateMutability": "nonpayable",
      "type": "function"
    },
    {
      "inputs": [
        {
          "internalType": "address",
          "name": "validationAddress",
          "type": "address"
        },
        {
          "internalType": "bytes32",
          "name": "hash",
          "type": "bytes32"
        },
        {
          "components": [
            {
              "internalType": "enum Signature.Type",
              "name": "signatureType",
              "type": "uint8"
            },
            {
              "internalType": "bytes",
              "name": "signatureBytes",
              "type": "bytes"
            }
          ],
          "internalType": "struct Signature.TypedSignature",
          "name": "signature",
          "type": "tuple"
        },
        {
          "internalType": "bool",
          "name": "isMaker",
          "type": "bool"
        }
      ],
      "name": "validateSignature",
      "outputs": [],
      "stateMutability": "view",
      "type": "function"
    },
    {
      "stateMutability": "payable",
      "type": "receive"
    }
  ],
  "bytecode": "0x610120346200023b57601f6200452638819003918201601f19168301926001600160401b0392909183851183861017620002255781606092849260409788528339810103126200023b57620000548162000240565b6200006f84620000676020850162000240565b930162000240565b90845194602086017f454950373132446f6d61696e28737472696e67206e616d652c737472696e672081527f76657273696f6e2c75696e7432353620636861696e49642c61646472657373208288015271766572696679696e67436f6e74726163742960701b6060880152605287526080870190878210878311176200022557818352875190209160a088019283527fd6144400a4098bee31df789c6c534128424a333149eec40af03ae3b3223cd96f60c08901527fc89efdaa54c0f20c7adf612882df0950f5a951637e0307cdcb4c672f298b8bc660e089015261014061010098468a8201523061012082015260a08452019682881090881117620002255786905251902060805260a05260c0526001600160a01b031660e05246825260016002556142d0918262000256833960805182818161114d01528181612ce40152612eac015260a0518281816106f101528181610bcd01528181610cbb01528181610f780152818161233201528181612618015281816126ae0152613d0d015260c0518281816118650152613dfc015260e05182818161118701528181612723015281816127b80152613b5b01525181613e240152f35b634e487b7160e01b600052604160045260246000fd5b600080fd5b51906001600160a01b03821682036200023b5756fe6080604052600436101561001b575b361561001957600080fd5b005b60003560e01c806311dc74611461011f5780631b3f8c5e1461011657806324a305f21461010d5780633644e515146101045780636afdd850146100fb578063ba19d835146100f2578063c7977be7146100e9578063cd738d68146100e0578063d06b070c146100d7578063da8faef9146100ce578063e606df87146100c5578063ea7faa61146100bc5763f2ed11790361000e576100b7611931565b61000e565b506100b7611894565b506100b761184e565b506100b761170e565b506100b7611602565b506100b76114ed565b506100b761132b565b506100b7611307565b506100b7611170565b506100b7611134565b506100b7610ad8565b506100b76106da565b506100b7610349565b600435906001600160a01b038216820361013e57565b600080fd5b35906001600160a01b038216820361013e57565b50634e487b7160e01b600052604160045260246000fd5b604081019081106001600160401b0382111761018957604052565b610191610157565b604052565b6001600160401b03811161018957604052565b608081019081106001600160401b0382111761018957604052565b60a081019081106001600160401b0382111761018957604052565b90601f801991011681019081106001600160401b0382111761018957604052565b6040519061014082018281106001600160401b0382111761018957604052565b6040519061022d8261016e565b565b60405190606082018281106001600160401b0382111761018957604052565b6040519061022d826101c4565b6040519061022d826101a9565b6020906001600160401b038111610285575b601f01601f19160190565b61028d610157565b61027a565b81601f8201121561013e578035906102a982610268565b926102b760405194856101df565b8284526020838301011161013e57816000926020809301838601378301015290565b91909160408184031261013e5760408051916001600160401b0391830182811184821017610332575b60405282948135600381101561013e578452602082013592831161013e5760209261032d9201610292565b910152565b61033a610157565b610302565b8015150361013e57565b503461013e57608036600319011261013e57610363610128565b602435906044356001600160401b03811161013e576103869036906004016102d9565b91606435926103948461033f565b805161039f81612ee7565b6103a881612ee7565b6104dc576103e66020926103c084600094015161407a565b6040805194855260ff909116602085015283019190915260608201529081906080820190565b838052039060015afa156104cf575b6000516001600160a01b038082169061040f821515612f07565b83161415928361046c575b50505061042357005b60405162461bcd60e51b815260206004820152601e60248201527f496e76616c696420454950373132206f72646572207369676e617475726500006044820152606490fd5b0390fd5b159250908215610481575b505038808061041a565b6001600160a01b031660009081526001602052604090206104c892506104c4916104bd915b9060018060a01b0316600052602052604060002090565b5460ff1690565b1590565b3880610477565b6104d7611b4f565b6103f5565b9092600182516104eb81612ee7565b6104f481612ee7565b0361058f57506020610019939281610526930151906040518080958194630b135d3f60e11b9889845260048401612f9c565b03916001600160a01b03165afa908115610582575b600091610554575b506001600160e01b03191614612fb3565b610575915060203d811161057b575b61056d81836101df565b810190612f7c565b38610543565b503d610563565b61058a611b4f565b61053b565b926002825161059d81612ee7565b6105a681612ee7565b03610691576020906105ec60009384927f19457468657265756d205369676e6564204d6573736167653a0a3332000000008452601c526103c084603c852092015161407a565b838052039060015afa15610684575b516001600160a01b0380821690610613821515612f07565b83161415928361063f575b505050156100195760405162461bcd60e51b81528061046860048201612f44565b159250908215610654575b505038808061061e565b6001600160a01b0316600090815260016020526040902061067d92506104c4916104bd916104a6565b388061064a565b61068c611b4f565b6105fb565b60405162461bcd60e51b8152602060048201526016602482015275496e76616c6964205369676e6174757265205479706560501b6044820152606490fd5b600091031261013e57565b503461013e57600036600319011261013e576040517f00000000000000000000000000000000000000000000000000000000000000006001600160a01b03168152602090f35b6020906001600160401b038111610739575b60051b0190565b610741610157565b610732565b81601f8201121561013e5780359161075d83610720565b9261076b60405194856101df565b808452602092838086019260051b82010192831161013e578301905b828210610795575050505090565b8380916107a184610143565b815201910190610787565b81601f8201121561013e578035916107c383610720565b926107d160405194856101df565b808452602092838086019260051b82010192831161013e578301905b8282106107fb575050505090565b813581529083019083016107ed565b9080601f8301121561013e5781359061082282610720565b9261083060405194856101df565b828452602092838086019160051b8301019280841161013e57848301915b84831061085e5750505050505090565b82356001600160401b03811161013e57869161087f84848094890101610746565b81520192019161084e565b9080601f8301121561013e578135906108a282610720565b926108b060405194856101df565b828452602092838086019160051b8301019280841161013e57848301915b8483106108de5750505050505090565b82356001600160401b03811161013e5786916108ff848480948901016107ac565b8152019201916108ce565b91906101408382031261013e5761091f610200565b928035845261093060208201610143565b60208501526001600160401b0391604082013583811161013e5781610956918401610746565b6040860152606082013583811161013e57816109739184016107ac565b6060860152608082013583811161013e578161099091840161080a565b608086015260a082013583811161013e57816109ad91840161080a565b60a086015260c082013583811161013e57816109ca91840161088a565b60c086015260e082013583811161013e57816109e791840161088a565b60e08601526101006109fa818401610143565b90860152610120928383013590811161013e57610a179201610292565b90830152565b81601f8201121561013e578035610a3381610720565b92604091610a43835195866101df565b808552602093848087019260051b8201019383851161013e57858201925b858410610a72575050505050505090565b6001600160401b0390843582811161013e5784019083601f19838903011261013e578351610a9f8161016e565b8983013593841161013e578483610abc8a8d8098819801016102d9565b83520135610ac98161033f565b83820152815201930192610a61565b50606036600319011261013e576001600160401b0360043581811161013e57610b0590369060040161090a565b60243582811161013e57610b1d9036906004016102d9565b9160443590811161013e57610b39610b49913690600401610a1d565b8093610b43611bd8565b8361347e565b918051610b54610220565b916000835260006020840152610b698261196c565b90600090815b848310610dc057505050602083015180610ca8575b50505080519182610bc9575b60405184815260008051602061427b8339815191529080602081015b0390a1610bb96001600255565b60405160018152602090f35b0390f35b91927f00000000000000000000000000000000000000000000000000000000000000006001600160a01b0316929091833b1561013e57600080808093610c68610100610c7b978480610c49610bac9d60008051602061427b8339815191529f604051948580948193632e1a7d4d60e01b8352600483019190602083019252565b03925af18015610c9b575b610c82575b5001516001600160a01b031690565b9051905af1610c75611b5c565b50611b8c565b9138610b90565b80610c8f610c9592610196565b806106cf565b38610c59565b610ca3611b4f565b610c54565b610cb490341015611af3565b60208301517f00000000000000000000000000000000000000000000000000000000000000006001600160a01b0316803b1561013e57600090600460405180948193630d0e30db60e41b83525af18015610db3575b610da0575b5060005b82811015610b8457806040610d2a610d369385611a39565b510151610d3b57611a06565b610d12565b610d9b610d68610d5c610d4e8487611a39565b51516001600160a01b031690565b6001600160a01b031690565b610d866020610d778588611a39565b5101516001600160a01b031690565b6040610d928588611a39565b51015191611c2c565b611a06565b80610c8f610dad92610196565b38610d0e565b610dbb611b4f565b610d09565b610e7f90610e67610e60610def610de28760408d9e98999c9a9b9d0151611a39565b516001600160a01b031690565b6101008c01518a9088908e906001600160a01b0316610e5a610e158560a0850151611a39565b519289610e52610e416020610e398a610e328160e0890151611a39565b519a611a39565b510151151590565b9760a0610120850151940151611a39565b5151916141c8565b94613b2a565b8651611a71565b8552610e778760a08b0151611a39565b515190611a71565b9560005b610e918760808b0151611a39565b515181101561110b578689610ed7610eca610ebc8c610eb68761012087015192611a71565b90611a7e565b516001600160f81b03191690565b6001600160f81b03191690565b80610f465750610f02610d5c610de285610efc610f4197966080610d9b970151611a39565b51611a39565b8b8a610f3a85610efc610f1e602086015160018060a01b031690565b9360c0610f32610de28360408a0151611a39565b960151611a39565b5192611c6a565b610e83565b915050600160f81b810361107f5750808760808b015190610f6691611a39565b5190610f7191611a39565b51610faa907f00000000000000000000000000000000000000000000000000000000000000006001600160a01b03908116911614611a9d565b8860c081018289825190610fbd91611a39565b5190610fc891611a39565b51602088015190610fd891611a71565b60208801528289808281608087015190610ff191611a39565b5190610ffc91611a39565b516001600160a01b031694604001519061101591611a39565b516001600160a01b031692519061102b91611a39565b519061103691611a39565b519061104061022f565b6001600160a01b0390931683526001600160a01b03166020830152604082015261106a8888611a39565b526110758787611a39565b50610f4190611a06565b600360f81b036110d45780610d9b6110a9610d5c610de2610f4195610efc8f60808f910151611a39565b8b6110cd84610efc8d60c06110c5610de2836040890151611a39565b950151611a39565b5191611c2c565b60405162461bcd60e51b815260206004820152600f60248201526e155b9adb9bdddb8818dbdb5b585b99608a1b6044820152606490fd5b5093929490969561112761112d91610e778460808b0151611a39565b91611a06565b9190610b6f565b503461013e57600036600319011261013e5760206040517f00000000000000000000000000000000000000000000000000000000000000008152f35b503461013e57600036600319011261013e576040517f00000000000000000000000000000000000000000000000000000000000000006001600160a01b03168152602090f35b60405160208101907f4167677265676174652875696e74323536206578706972792c6164647265737382527f2074616b65725f616464726573732c616464726573735b5d206d616b65725f6160408201527f64647265737365732c75696e743235365b5d206d616b65725f6e6f6e6365732c60608201527f616464726573735b5d5b5d2074616b65725f746f6b656e732c6164647265737360808201527f5b5d5b5d206d616b65725f746f6b656e732c75696e743235365b5d5b5d20746160a08201527f6b65725f616d6f756e74732c75696e743235365b5d5b5d206d616b65725f616d60c08201527f6f756e74732c616464726573732072656365697665722c627974657320636f6d60e0820152656d616e64732960d01b61010082015260e6815261012081018181106001600160401b038211176112fa575b60405251902090565b611302610157565b6112f1565b503461013e57600036600319011261013e5760206113236111b6565b604051908152f35b503461013e57600036600319011261013e576020604051818101907f454950373132446f6d61696e28737472696e67206e616d652c737472696e672082527f76657273696f6e2c75696e7432353620636861696e49642c6164647265737320604082015271766572696679696e67436f6e74726163742960701b6060820152605281526113b7816101a9565b519020604051908152f35b60405160208101907f5061727469616c2875696e74323536206578706972792c61646472657373207482527f616b65725f616464726573732c61646472657373206d616b65725f616464726560408201527f73732c75696e74323536206d616b65725f6e6f6e63652c616464726573735b5d60608201527f2074616b65725f746f6b656e732c616464726573735b5d206d616b65725f746f60808201527f6b656e732c75696e743235365b5d2074616b65725f616d6f756e74732c75696e60a08201527f743235365b5d206d616b65725f616d6f756e74732c616464726573732072656360c08201527465697665722c627974657320636f6d6d616e64732960581b60e082015260d5815261010081018181106001600160401b038211176112fa5760405251902090565b503461013e57600036600319011261013e5760206113236113c2565b9080601f8301121561013e5781359061152182610720565b9261152f60405194856101df565b828452602092838086019160051b8301019280841161013e57848301915b84831061155d5750505050505090565b82356001600160401b03811161013e57869161157e84848094890101610292565b81520192019161154d565b359065ffffffffffff8216820361013e57565b81601f8201121561013e578035916115b383610720565b926115c160405194856101df565b808452602092838086019260051b82010192831161013e578301905b8282106115eb575050505090565b8380916115f784611589565b8152019101906115dd565b5060031960803682011261013e576001600160401b03906004803583811161013e57611631903690830161090a565b60243584811161013e5761164890369084016102d9565b60443585811161013e5761165f9036908501610a1d565b916064359486861161013e57608090863603011261013e5760405193611684856101a9565b8581013587811161013e5761169e90823691890101611509565b8552602486013587811161013e576116bb90823691890101610292565b6020860152604486013596871161013e5760646116fc966116e7610bc5996116f294369184010161159c565b604088015201611589565b6060850152611e7b565b60405190151581529081906020820190565b503461013e5760031960203682011261013e5760048035916001600160401b039081841161013e5761014090843603011261013e5761174b610200565b9083830135825261175e60248501610143565b602083015261176f60448501610143565b604083015260648401356060830152608484013581811161013e5761179990843691870101610746565b608083015260a484013581811161013e576117b990843691870101610746565b60a083015260c484013581811161013e576117d9908436918701016107ac565b60c083015260e484013581811161013e576117f9908436918701016107ac565b60e083015261180b6101048501610143565b61010083015261012484013590811161013e57610bc59361183e936118339236920101610292565b610120820152612d2c565b6040519081529081906020820190565b503461013e57600036600319011261013e576040517f00000000000000000000000000000000000000000000000000000000000000006001600160a01b03168152602090f35b503461013e57604036600319011261013e577f6ea9dbe8b2cc119348716a9220a0742ad62b7884ecb0ff4b32cd508121fd937960606118d1610128565b6024356118dd8161033f565b3360009081526001602090815260408083206001600160a01b03861684529091529020805460ff92151592831660ff1991909116179055604080513381526001600160a01b039093166020840152820152a1005b503461013e57602036600319011261013e576004356001600160401b03811161013e57611323611967602092369060040161090a565b612b74565b9061197682610720565b604090611985825191826101df565b8381528093611996601f1991610720565b0191600091825b8481106119ab575050505050565b6020908351606081018181106001600160401b038211176119e2575b8552858152828681830152868683015282850101520161199d565b6119ea610157565b6119c7565b50634e487b7160e01b600052601160045260246000fd5b6001906000198114611a16570190565b611a1e6119ef565b0190565b50634e487b7160e01b600052603260045260246000fd5b6020918151811015611a4e575b60051b010190565b611a56611a22565b611a46565b90601f8201809211611a6957565b61022d6119ef565b91908201809211611a6957565b906020918051821015611a9057010190565b611a98611a22565b010190565b15611aa457565b60405162461bcd60e51b815260206004820152602160248201527f54616b6572277320746f6b656e206973206e6f74206e617469766520746f6b656044820152603760f91b6064820152608490fd5b15611afa57565b60405162461bcd60e51b815260206004820152602760248201527f54616b657220646f65736e2774206861766520656e6f756768206e617469766560448201526620746f6b656e7360c81b6064820152608490fd5b506040513d6000823e3d90fd5b3d15611b87573d90611b6d82610268565b91611b7b60405193846101df565b82523d6000602084013e565b606090565b15611b9357565b60405162461bcd60e51b815260206004820152601d60248201527f4661696c656420746f2073656e6420457468657220746f2074616b65720000006044820152606490fd5b6002805414611be75760028055565b60405162461bcd60e51b815260206004820152601f60248201527f5265656e7472616e637947756172643a207265656e7472616e742063616c6c006044820152606490fd5b60405163a9059cbb60e01b60208201526001600160a01b03909216602483015260448083019390935291815261022d91611c65826101a9565b611cac565b6040516323b872dd60e01b60208201526001600160a01b03928316602482015292909116604483015260648083019390935291815261022d91611c65826101c4565b604051611d0a916001600160a01b0316611cc58261016e565b6000806020958685527f5361666545524332303a206c6f772d6c6576656c2063616c6c206661696c656487860152868151910182855af1611d04611b5c565b91611d9a565b8051828115918215611d7a575b5050905015611d235750565b6084906040519062461bcd60e51b82526004820152602a60248201527f5361666545524332303a204552433230206f7065726174696f6e20646964206e6044820152691bdd081cdd58d8d9595960b21b6064820152fd5b838092935001031261013e57810151611d928161033f565b808238611d17565b91929015611dfc5750815115611dae575090565b3b15611db75790565b60405162461bcd60e51b815260206004820152601d60248201527f416464726573733a2063616c6c20746f206e6f6e2d636f6e74726163740000006044820152606490fd5b825190915015611e0f5750805190602001fd5b60405162461bcd60e51b815260206004820152908190610468906024830190611e56565b60005b838110611e465750506000910152565b8181015183820152602001611e36565b90602091611e6f81518092818552858086019101611e33565b601f01601f1916010190565b9192939083611e9291611e8c611bd8565b8461347e565b92600092835b60808201518051861015611ec357611ebd91610e7787611eb793611a39565b94611a06565b93611e98565b509350919394611ed284612872565b93611eea611ee4604084015151612872565b9161196c565b611ef2610220565b966000885260006020890152611f0661024e565b9860008a52600060208b0152600060408b0152600060608b0152600060808b01526000955b8051871015612530579081611fb0611fa98d8a8c9796611f52610de28360408c0151611a39565b9289610e5a611f798560a0611f7161010086015160018060a01b031690565b940151611a39565b51928c610e52611f966020610e398a610e328160e0880151611a39565b9760a06101208401519451930151611a39565b8c51611a71565b8b52611fcc611fc38960a0870151611a39565b51518d51611a71565b8c5260005b8a8d611fe18b6080890151611a39565b515183101561250657908a92918a888b61200b610eca610ebc610120850151610eb68a8951611a71565b806120f5575050602001516120f0956120ea94939092506120e3916120c8906001600160a01b03165b936120b88d6120a861207d610de28c610efc612057610de2896040890151611a39565b97608061207561206f85610efc8560c08d0151611a39565b51614254565b970151611a39565b9361209861208961025b565b6001600160a01b03909a168a52565b6001600160a01b03166020890152565b6001600160a01b03166040870152565b6001600160a01b03166060850152565b608081015193849160806120db84611a06565b910152611a39565b528d611a39565b50611a06565b611fd1565b9294919392600160fa1b810361215257505050506121459150610d5c610de284610efc6120f0976080612129960151611a39565b878c610f3a85610efc610f1e602086015160018060a01b031690565b8b51600019018c52611a06565b600560f81b81036122025750505061214592826121d09265ffffffffffff6121c76121a0610de28a610efc60206120f09e9b019a60806121988d5160018060a01b031690565b990151611a39565b926121b4606087015165ffffffffffff1690565b955160408201519160406120db84611a06565b51931691613ddc565b878c610f3a85610efc610f1e6121f4610d5c610de285610efc8960808c0151611a39565b96516001600160a01b031690565b919492939091600360f91b81036122f85750926122e087936120e3936122bc61223d610de28b610efc6120f09e60806120ea9e9d0151611a39565b926122ad61227661226a604061225c606086015165ffffffffffff1690565b94015160208a015190611a39565b5165ffffffffffff1690565b9161229161228261025b565b6001600160a01b039097168752565b6001600160a01b03602087015265ffffffffffff166040860152565b65ffffffffffff166060840152565b6020840151916122cb83611a06565b60208601526122da8383611a39565b52611a39565b5060208b01516120c8906001600160a01b0316612034565b9596505050600160f81b84141592506124579150505750808960808701519061232091611a39565b519061232b91611a39565b51612364907f00000000000000000000000000000000000000000000000000000000000000006001600160a01b03908116911614611a9d565b8c60c086018d838c83519061237891611a39565b519061238391611a39565b5160208201519061239391611a71565b9060200152828b6080890151906123a991611a39565b51906123b491611a39565b516001600160a01b031690838c8060408b0151906123d191611a39565b516001600160a01b03169251906123e791611a39565b51906123f291611a39565b51906123fc61022f565b6001600160a01b0390931683526001600160a01b03166020830152604082015260608201519161242b83611a06565b906060015261243a8289611a39565b526124459087611a39565b508a51600019018b526120f090611a06565b909450600360f81b036110d4576120f0846124f88e8b8d6124ce6124a286610efc61248e610de2869f610efc8960808a0151611a39565b9560c0610f32610de28360408a0151611a39565b51916124be6124af61022f565b6001600160a01b039095168552565b6001600160a01b03166020840152565b604082015260608201519160606124e484611a06565b9101526124f1828b611a39565b5288611a39565b508b51600019018c52611a06565b50505092509561252890612521611fc38260808c0151611a39565b8c52611a06565b959091611f2b565b5095945095919097969261254b6040890151825151146128df565b61255b602089015183511461293a565b81516127a8575b50506125746080870151825114612a56565b6080860151612721575b5060208101518061269b575b5060005b60608601518110156125d6576125cf81610d9b6125b3610d5c610d4e6060968d611a39565b8a6040610d92856125c96020610d778387611a39565b93611a39565b905061258e565b50805193955091935082612614575b50506040519182525060008051602061427b8339815191529080602081015b0390a160019061022d6001600255565b91927f00000000000000000000000000000000000000000000000000000000000000006001600160a01b0316929091833b1561013e57600080808093610c68610100612694978480610c496126049d60008051602061427b8339815191529f604051948580948193632e1a7d4d60e01b8352600483019190602083019252565b91386125e5565b6126a790341015611af3565b60208101517f00000000000000000000000000000000000000000000000000000000000000006001600160a01b0316803b1561013e57600090600460405180948193630d0e30db60e41b83525af18015612714575b1561258a5780610c8f61270e92610196565b3861258a565b61271c611b4f565b6126fc565b7f00000000000000000000000000000000000000000000000000000000000000006001600160a01b0316803b1561013e57604051630d58b1db60e01b81529160009183918290849082906127789060048301612aa2565b03925af1801561279b575b1561257e5780610c8f61279592610196565b3861257e565b6127a3611b4f565b612783565b6020858101516001600160a01b037f000000000000000000000000000000000000000000000000000000000000000081169291169265ffffffffffff6127f7606083015165ffffffffffff1690565b6127ff61022f565b9687523084880152166040860152015190803b1561013e5761283c936000809460405196879586948593632a2d80d160e01b855260048501612995565b03925af18015612865575b612852575b80612562565b80610c8f61285f92610196565b3861284c565b61286d611b4f565b612847565b9061287c82610720565b60409061288b825191826101df565b838152809361289c601f1991610720565b019160005b8381106128ae5750505050565b60209082516128bc816101a9565b6000815282600081830152600085830152600060608301528286010152016128a1565b156128e657565b60405162461bcd60e51b815260206004820152602660248201527f556e6578706563746564206e756d626572206f66205065726d6974207369676e60448201526561747572657360d01b6064820152608490fd5b1561294157565b60405162461bcd60e51b815260206004820152602660248201527f556e6578706563746564206e756d626572206f6620746f6b656e7320746f20616044820152657070726f766560d01b6064820152608490fd5b6001600160a01b039182168152606060208083018290528451828401839052805160c0850181905291979660e08501969095909391890192916000915b838310612a0f5750505050958101516001600160a01b03166080830152939450612a0c936040015160a08201526040818403910152611e56565b90565b8451805182168a52808c015182168c8b015260408082015165ffffffffffff908116918c0191909152908301511689830152608090980197938a01936001909201916129d2565b15612a5d57565b60405162461bcd60e51b815260206004820152601b60248201527f556e6578706563746564206e756d626572206f6620746f6b656e7300000000006044820152606490fd5b60208082019080835283518092528060408094019401926000905b838210612acc57505050505090565b845180516001600160a01b0390811688528185015181168886015281830151811688840152606091820151169087015260809095019493820193600190910190612abd565b805160208092019160005b828110612b2a575050505090565b83516001600160a01b031685529381019392810192600101612b1c565b805160208092019160005b828110612b60575050505090565b835185529381019392810192600101612b52565b612d1a612d26612b826111b6565b92805193602094612cd086612cc4612ba28287015160018060a01b031690565b6040870151966040519788612bba8682018093612b11565b0398612bce601f199a8b81018352826101df565b5190206060820151604051612bf681612bea8982018095612b47565b038c81018352826101df565b519020612c0660808401516133ee565b868151910120612c1960a08501516133ee565b87815191012090612c2d60c0860151613375565b88815191012092612c4160e0870151613375565b8051908a0120610100870151909590610120906001600160a01b03169701518051908b0120604080519b8c019e8f5260208f019d909d526001600160a01b039889169c8e019c909c5260608d015260808c015260a08b015260c08a015260e089015261010088015216610120860152610140850193909352918290610160850190565b038481018352826101df565b51902060405161190160f01b9581019586527f0000000000000000000000000000000000000000000000000000000000000000600287015260228601919091529283906042860190565b039081018352826101df565b51902090565b612d1a612d26612da1612d3d6113c2565b845190602091612e9f83612e93612d5c828b015160018060a01b031690565b60408b810151909b8c9290916001600160a01b031660608301519060808401519185519283612d8e8a82018093612b11565b0393601f199e8f958681018352826101df565b5190209060a08601518751612dc981612dbd8d82018095612b11565b038781018352826101df565b5190209260c0870151612de7612df38c8b5192839182018095612b47565b038881018352826101df565b51902094612d1a612e1260e08a0151928d8c5193849182018096612b47565b519020610100880151909690610120906001600160a01b03169801518051908c012098519a8b019d8e5260208e019c909c526001600160a01b039b8c1660408e01528b1660608d015260808c015260a08b015260c08a015260e089015261010088015294909416610120860152610140850193909352918290610160850190565b038581018352826101df565b51902094519384918201957f000000000000000000000000000000000000000000000000000000000000000087909160429261190160f01b8352600283015260228201520190565b60031115612ef157565b634e487b7160e01b600052602160045260246000fd5b15612f0e57565b60405162461bcd60e51b815260206004820152600e60248201526d24b73b30b634b21039b4b3b732b960911b6044820152606490fd5b60609060208152601f60208201527f496e76616c69642045544853494748206f72646572207369676e61747572650060408201520190565b9081602091031261013e57516001600160e01b03198116810361013e5790565b604090612a0c939281528160208201520190611e56565b15612fba57565b60405162461bcd60e51b815260206004820152601f60248201527f496e76616c69642045495031323731206f72646572207369676e6174757265006044820152606490fd5b91805161300b81612ee7565b61301481612ee7565b6130795761302c6020926103c084600094015161407a565b838052039060015afa1561306c575b6000516001600160a01b0390811691613055831515612f07565b16141580613064575b61042357565b50600161305e565b613074611b4f565b61303b565b6001815161308681612ee7565b61308f81612ee7565b036130bf57602061022d9381610526930151906040518080958194630b135d3f60e11b9889845260048401612f9c565b90600282516130cd81612ee7565b6130d681612ee7565b036106915760209061311c60009384927f19457468657265756d205369676e6564204d6573736167653a0a3332000000008452601c526103c084603c852092015161407a565b838052039060015afa15613172575b516001600160a01b0390811691613143831515612f07565b1614158061316a575b1561022d5760405162461bcd60e51b81528061046860048201612f44565b50600161314c565b61317a611b4f565b61312b565b91805161318b81612ee7565b61319481612ee7565b613225576131ac6020926103c084600094015161407a565b838052039060015afa15613218575b6000516001600160a01b03808216906131d5821515612f07565b8316141591826131e8575b505061042357565b6001600160a01b0316600090815260016020526040902061321192506104c4916104bd916104a6565b38806131e0565b613220611b4f565b6131bb565b6001815161323281612ee7565b61323b81612ee7565b0361326b57602061022d9381610526930151906040518080958194630b135d3f60e11b9889845260048401612f9c565b906002825161327981612ee7565b61328281612ee7565b03610691576020906132c860009384927f19457468657265756d205369676e6564204d6573736167653a0a3332000000008452601c526103c084603c852092015161407a565b838052039060015afa1561334a575b516001600160a01b03808216906132ef821515612f07565b83161415918261331a575b50501561022d5760405162461bcd60e51b81528061046860048201612f44565b6001600160a01b0316600090815260016020526040902061334392506104c4916104bd916104a6565b38806132fa565b613352611b4f565b6132d7565b602092919061336d849282815194859201611e33565b019081520190565b60609080516000905b80821061338b5750505090565b909193926133e4906133de6133a08588611a39565b51604090612d1a825192602092846133bb8582018093612b47565b03946133cf601f19968781018352826101df565b51902090519586938401613357565b92611a06565b909391929361337e565b60609080516000905b8082106134045750505090565b90919392613434906133de6134198588611a39565b51604090612d1a825192602092846133bb8582018093612b11565b90939192936133f7565b1561344557565b60405162461bcd60e51b815260206004820152601160248201527014da59db985d1d5c9948195e1c1a5c9959607a1b6044820152606490fd5b909161348982612b74565b9260018060a01b036020840151169084823303613711575b5050506134b5608083015151825114613722565b6134c660a08301515182511461376e565b6134d760c0830151518251146137ba565b6134e860e083015151825114613806565b6134f9606083015151825114613852565b61350a60408301515182511461389e565b80519060009182915b81831061353a5750505090613532612a0c9261012083015151146139a4565b51421061343e565b90919261370461370a916136dd613558610de28860408b0151611a39565b6135816135698960a08c0151611a39565b51516135798a60e08d0151611a39565b5151146138ea565b6135aa6135928960808c0151611a39565b51516135a28a60c08d0151611a39565b515114613947565b6136c86136b58a518a6118338d886135cb602083015160018060a01b031690565b936135da816060850151611a39565b516135e9826080860151611a39565b516135f88360a0870151611a39565b519161367c61366061360e8660c08a0151611a39565b519561361e8160e08b0151611a39565b516101008a015190989061365a906001600160a01b03169a610e776101208201519460806136508260a0860151611a39565b5151930151611a39565b916141c8565b98613669610200565b9a8b526001600160a01b031660208b0152565b6001600160a01b038c1660408a01526060890152608088015260a087015260c086015260e08501526001600160a01b0316610100840152565b6136bf8a89611a39565b5151908361317f565b6136d68860608b0151611a39565b5190613a3c565b6136fe6136ee8760a08a0151611a39565b5151610e778860808b0151611a39565b90611a71565b93611a06565b9190613513565b61371a92612fff565b3880846134a1565b1561372957565b60405162461bcd60e51b815260206004820152601c60248201527f54616b657220746f6b656e73206c656e677468206d69736d61746368000000006044820152606490fd5b1561377557565b60405162461bcd60e51b815260206004820152601c60248201527f4d616b657220746f6b656e73206c656e677468206d69736d61746368000000006044820152606490fd5b156137c157565b60405162461bcd60e51b815260206004820152601d60248201527f54616b657220616d6f756e7473206c656e677468206d69736d617463680000006044820152606490fd5b1561380d57565b60405162461bcd60e51b815260206004820152601d60248201527f4d616b657220616d6f756e7473206c656e677468206d69736d617463680000006044820152606490fd5b1561385957565b60405162461bcd60e51b815260206004820152601c60248201527f4d616b6572206e6f6e636573206c656e677468206d69736d61746368000000006044820152606490fd5b156138a557565b60405162461bcd60e51b815260206004820152601f60248201527f4d616b657220616464726573736573206c656e677468206d69736d61746368006044820152606490fd5b156138f157565b60405162461bcd60e51b815260206004820152602860248201527f4d616b657220746f6b656e7320616e6420616d6f756e7473206c656e677468206044820152670dad2e6dac2e8c6d60c31b6064820152608490fd5b1561394e57565b60405162461bcd60e51b815260206004820152602860248201527f54616b657220746f6b656e7320616e6420616d6f756e7473206c656e677468206044820152670dad2e6dac2e8c6d60c31b6064820152608490fd5b156139ab57565b60405162461bcd60e51b815260206004820152601f60248201527f546f6b656e207472616e7366657273206c656e677468206d69736d61746368006044820152606490fd5b156139f757565b60405162461bcd60e51b815260206004820152601b60248201527f496e76616c6964206d616b6572206f7264657220286e6f6e63652900000000006044820152606490fd5b908015613aa05780600160ff66ffffffffffffff613a9d9460081c1692161b9260018060a01b031660005260006020526040600020928160005283602052604060002054613a8c828216156139f0565b179290600052602052604060002090565b55565b60405162461bcd60e51b81526020600482015260166024820152754e6f6e6365206d757374206265206e6f6e2d7a65726f60501b6044820152606490fd5b15613ae557565b60405162461bcd60e51b815260206004820152601f60248201527f496e76616c6964206d616b65722773206e6174697665207472616e73666572006044820152606490fd5b94939293919091600095825192613b4084612872565b96885b858110613bdd5750505050505050613b59575090565b7f00000000000000000000000000000000000000000000000000000000000000006001600160a01b0316803b1561013e57604051630d58b1db60e01b8152916000918391829084908290613bb09060048301612aa2565b03925af18015613bd0575b613bc3575090565b80610c8f612a0c92610196565b613bd8611b4f565b613bbb565b613be78183611a39565b519087613bfa610eca610ebc848a611a7e565b613ca2575b613c83928a15613c8857613c15613c6e91614254565b613c5e613c25610de2868a611a39565b91613c4e613c3161025b565b6001600160a01b038c168152956001600160a01b03166020870152565b6001600160a01b03166040850152565b6001600160a01b03166060830152565b613c78828c611a39565b526120ea818b611a39565b613b43565b610d9b9187613c9d610d5c610de2878b611a39565b611c6a565b50906001600160f81b0319600160f91b81613cc0610ebc868b611a7e565b1603613cd6575090613c839130905b9250613bff565b909a9190600160f81b90613ced610ebc848a611a7e565b1603613d4c57613d448b613c8393613d3f613d0b610de2868a611a39565b7f00000000000000000000000000000000000000000000000000000000000000006001600160a01b03908116911614613ade565b611a71565b9a3090613ccf565b60405162461bcd60e51b8152602060048201526015602482015274155b9adb9bdddb881b585ad95c8818dbdb5b585b99605a1b6044820152606490fd5b9081602091031261013e575190565b9360ff929897969360e0969261010087019a60018060a01b03809216885216602087015260408601526060850152600160808501521660a083015260c08201520152565b919092613de89061407a565b9491936001600160a01b03928316929091907f0000000000000000000000000000000000000000000000000000000000000000168303613f7c577f0000000000000000000000000000000000000000000000000000000000000000608903613f1957604051632d0335ab60e01b81526001600160a01b038316600482015291602083602481875afa928315613f0c575b600093613edc575b50833b1561013e57613eb0600096928793604051998a98899788966323f2ebc360e21b8852309060048901613d98565b03925af18015613ecf575b613ec25750565b80610c8f61022d92610196565b613ed7611b4f565b613ebb565b613efe91935060203d8111613f05575b613ef681836101df565b810190613d89565b9138613e80565b503d613eec565b613f14611b4f565b613e78565b604051623f675f60e91b81526001600160a01b038316600482015291602083602481875afa928315613f0c57600093613edc5750833b1561013e57613eb0600096928793604051998a98899788966323f2ebc360e21b8852309060048901613d98565b8295939194953b1561013e5760405163d505accf60e01b81526001600160a01b0390951660048601523060248601526000196044860152606485019190915260ff909216608484015260a483019390935260c482015290600090829081838160e48101613eb0565b60ff601b9116019060ff8211611a6957565b15613ffd57565b60405162461bcd60e51b8152602060048201526013602482015272496e76616c6964207369672076616c7565205360681b6044820152606490fd5b1561403f57565b60405162461bcd60e51b815260206004820152601360248201527224b73b30b634b21039b4b3903b30b63ab2902b60691b6044820152606490fd5b9060418251036141065760208201519060ff604160408501519401511691601b83106140f6575b6140cd7f7fffffffffffffffffffffffffffffff5d576e7357a4501ddfe92f46681b20a0851115613ff6565b6140e660ff8416601b81149081156140eb575b50614038565b929190565b601c915014386140e0565b9161410090613fe4565b916140a1565b60405162461bcd60e51b815260206004820152601860248201527f496e76616c6964207369676e6174757265206c656e67746800000000000000006044820152606490fd5b1561415257565b60405162461bcd60e51b815260206004820152600e60248201526d736c6963655f6f766572666c6f7760901b6044820152606490fd5b1561418f57565b60405162461bcd60e51b8152602060048201526011602482015270736c6963655f6f75744f66426f756e647360781b6044820152606490fd5b916141dd816141d681611a5b565b101561414b565b6141f383516141ec8385611a71565b1115614188565b8061420c57505050604051600081526020810160405290565b60405192601f821692831560051b80858701019484860193010101905b8084106142415750508252601f01601f191660405290565b9092835181526020809101930190614229565b6001600160a01b0390818111614268571690565b60405163c4bd89a960e01b8152600490fdfec59522161f93d59c8c4520b0e7a3635fb7544133275be812a4ea970f4f14251ba2646970667358221220740cb0f42ba7059dd9618aa8f6f8654e326720cac7c22c1597dec43e92631f6764736f6c63430008110033",
  "linkReferences": {},
  "deployedLinkReferences": {}
}